{
  "contractName": "ReturnValue",
  "abi": [
    {
      "anonymous": false,
      "inputs": [
        {
          "indexed": false,
          "name": "from",
          "type": "address"
        },
        {
          "indexed": false,
          "name": "to",
          "type": "address"
        },
        {
          "indexed": false,
          "name": "amount",
          "type": "uint256"
        }
      ],
      "name": "callcheck",
      "type": "event"
    },
    {
      "constant": false,
      "inputs": [
        {
          "name": "callee",
          "type": "address"
        }
      ],
      "name": "callchecked",
      "outputs": [],
      "payable": false,
      "stateMutability": "nonpayable",
      "type": "function"
    },
    {
      "constant": false,
      "inputs": [
        {
          "name": "callee",
          "type": "address"
        }
      ],
      "name": "callchecked_return",
      "outputs": [
        {
          "name": "",
          "type": "bool"
        }
      ],
      "payable": false,
      "stateMutability": "nonpayable",
      "type": "function"
    },
    {
      "constant": false,
      "inputs": [
        {
          "name": "callee",
          "type": "address"
        }
      ],
      "name": "callnotchecked",
      "outputs": [],
      "payable": false,
      "stateMutability": "nonpayable",
      "type": "function"
    },
    {
      "constant": false,
      "inputs": [
        {
          "name": "callee",
          "type": "address"
        }
      ],
      "name": "sendcall",
      "outputs": [],
      "payable": false,
      "stateMutability": "nonpayable",
      "type": "function"
    },
    {
      "constant": false,
      "inputs": [],
      "name": "a",
      "outputs": [],
      "payable": true,
      "stateMutability": "payable",
      "type": "function"
    }
  ],
  "bytecode": "0x608060405234801561001057600080fd5b5061057a806100206000396000f30060806040526004361061006d576000357c0100000000000000000000000000000000000000000000000000000000900463ffffffff1680630dbe671f146100725780635d6682881461007c5780637536185e146100d75780639750895c1461011a578063bf9bd6cb1461015d575b600080fd5b61007a6101a0565b005b34801561008857600080fd5b506100bd600480360381019080803573ffffffffffffffffffffffffffffffffffffffff1690602001909291905050506101a2565b604051808215151515815260200191505060405180910390f35b3480156100e357600080fd5b50610118600480360381019080803573ffffffffffffffffffffffffffffffffffffffff16906020019092919050505061032b565b005b34801561012657600080fd5b5061015b600480360381019080803573ffffffffffffffffffffffffffffffffffffffff169060200190929190505050610483565b005b34801561016957600080fd5b5061019e600480360381019080803573ffffffffffffffffffffffffffffffffffffffff1690602001909291905050506104c1565b005b565b60008173ffffffffffffffffffffffffffffffffffffffff166040516000604051808303816000865af19150501515610243576040517f08c379a00000000000000000000000000000000000000000000000000000000081526004018080602001828103825260198152602001807f63616c6c65652e63616c6c204661696c202872657475726e290000000000000081525060200191505060405180910390fd5b7fbdc3cbfc4c9e8e4ff2027d7112101be706b02817d959a57b20f4400ae9e6f6da33833373ffffffffffffffffffffffffffffffffffffffff1631604051808473ffffffffffffffffffffffffffffffffffffffff1673ffffffffffffffffffffffffffffffffffffffff1681526020018373ffffffffffffffffffffffffffffffffffffffff1673ffffffffffffffffffffffffffffffffffffffff168152602001828152602001935050505060405180910390a18173ffffffffffffffffffffffffffffffffffffffff166040516000604051808303816000865af19150509050919050565b8073ffffffffffffffffffffffffffffffffffffffff166040516000604051808303816000865af191505015156103ca576040517f08c379a00000000000000000000000000000000000000000000000000000000081526004018080602001828103825260108152602001807f63616c6c65652e63616c6c204661696c0000000000000000000000000000000081525060200191505060405180910390fd5b7fbdc3cbfc4c9e8e4ff2027d7112101be706b02817d959a57b20f4400ae9e6f6da33823373ffffffffffffffffffffffffffffffffffffffff1631604051808473ffffffffffffffffffffffffffffffffffffffff1673ffffffffffffffffffffffffffffffffffffffff1681526020018373ffffffffffffffffffffffffffffffffffffffff1673ffffffffffffffffffffffffffffffffffffffff168152602001828152602001935050505060405180910390a150565b8073ffffffffffffffffffffffffffffffffffffffff166108fc6402540be4009081150290604051600060405180830381858888f193505050505050565b8073ffffffffffffffffffffffffffffffffffffffff166040516000604051808303816000865af1915050503373ffffffffffffffffffffffffffffffffffffffff166108fc3073ffffffffffffffffffffffffffffffffffffffff16319081150290604051600060405180830381858888f1935050505015801561054a573d6000803e3d6000fd5b50505600a165627a7a72305820582386a3c74dc35366cd9f5a381d9c5cc79d7d18e2dfec04ed4a88bf67195e1c0029",
  "source": "// SPDX-License-Identifier: MIT\r\npragma solidity >=0.4.22 <0.9.0;\r\n//pragma solidity 0.4.25;\r\n\r\ncontract ReturnValue {\r\n\r\n    string msg1;\r\n    event callcheck(address from, address to, uint amount);\r\n\r\n  function callchecked(address callee) public{\r\n    require(callee.call(), \"callee.call Fail\");\r\n    emit callcheck(msg.sender, callee, msg.sender.balance);\r\n  }\r\n\r\n  function callchecked_return(address callee) public returns(bool) {\r\n    require(callee.call(), \"callee.call Fail (return)\");\r\n    emit callcheck(msg.sender, callee, msg.sender.balance);\r\n    return callee.call();\r\n  }\r\n  function callnotchecked(address callee) public {\r\n    callee.call();\r\n    msg.sender.transfer(this.balance);\r\n  }\r\n\r\n  function sendcall(address callee) public {\r\n    callee.send(10000000000); //callee로 값 만큼 전송\r\n    address(this).balance;\r\n  }\r\n\r\n  function a() payable{}\r\n}",
  "sourcePath": "C:/Users/vlfgh/OneDrive/Desktop/STL/swc104/contracts/swc104.sol",
  "compiler": {
    "name": "solc",
    "version": "0.4.24+commit.e67f0147.Emscripten.clang"
  },
  "schemaVersion": "3.4.1",
  "updatedAt": "2021-08-05T01:29:03.557Z",
  "networkType": "ethereum",
  "devdoc": {
    "methods": {}
  },
  "userdoc": {
    "methods": {}
  }
}