{
  "contractName": "swc104",
  "abi": [
    {
      "constant": false,
      "inputs": [
        {
          "name": "callee",
          "type": "address"
        }
      ],
      "name": "callchecked",
      "outputs": [],
      "payable": false,
      "stateMutability": "nonpayable",
      "type": "function"
    },
    {
      "constant": false,
      "inputs": [
        {
          "name": "callee",
          "type": "address"
        }
      ],
      "name": "callchecked_return",
      "outputs": [
        {
          "name": "",
          "type": "bool"
        }
      ],
      "payable": false,
      "stateMutability": "nonpayable",
      "type": "function"
    },
    {
      "constant": false,
      "inputs": [
        {
          "name": "callee",
          "type": "address"
        }
      ],
      "name": "callnotchecked",
      "outputs": [],
      "payable": false,
      "stateMutability": "nonpayable",
      "type": "function"
    },
    {
      "constant": false,
      "inputs": [
        {
          "name": "callee",
          "type": "address"
        }
      ],
      "name": "callnotchecked_return",
      "outputs": [
        {
          "name": "",
          "type": "bool"
        }
      ],
      "payable": false,
      "stateMutability": "nonpayable",
      "type": "function"
    }
  ],
  "bytecode": "0x60806040526040805190810160405280600481526020017f54455354000000000000000000000000000000000000000000000000000000008152506000908051906020019061004f9291906100a3565b5033600160006101000a81548173ffffffffffffffffffffffffffffffffffffffff021916908373ffffffffffffffffffffffffffffffffffffffff16021790555034801561009d57600080fd5b50610148565b828054600181600116156101000203166002900490600052602060002090601f016020900481019282601f106100e457805160ff1916838001178555610112565b82800160010185558215610112579182015b828111156101115782518255916020019190600101906100f6565b5b50905061011f9190610123565b5090565b61014591905b80821115610141576000816000905550600101610129565b5090565b90565b6103d3806101576000396000f300608060405260043610610062576000357c0100000000000000000000000000000000000000000000000000000000900463ffffffff1680635d668288146100675780635f28f434146100c25780637536185e1461011d578063bf9bd6cb14610160575b600080fd5b34801561007357600080fd5b506100a8600480360381019080803573ffffffffffffffffffffffffffffffffffffffff1690602001909291905050506101a3565b604051808215151515815260200191505060405180910390f35b3480156100ce57600080fd5b50610103600480360381019080803573ffffffffffffffffffffffffffffffffffffffff169060200190929190505050610276565b604051808215151515815260200191505060405180910390f35b34801561012957600080fd5b5061015e600480360381019080803573ffffffffffffffffffffffffffffffffffffffff1690602001909291905050506102d6565b005b34801561016c57600080fd5b506101a1600480360381019080803573ffffffffffffffffffffffffffffffffffffffff169060200190929190505050610378565b005b60008173ffffffffffffffffffffffffffffffffffffffff166040516000604051808303816000865af19150501515610244576040517f08c379a000000000000000000000000000000000000000000000000000000000815260040180806020018281038252601d8152602001807f63616c6c65652e63616c6c204661696c202d205573652052657475726e00000081525060200191505060405180910390fd5b8173ffffffffffffffffffffffffffffffffffffffff166040516000604051808303816000865af19150509050919050565b60008173ffffffffffffffffffffffffffffffffffffffff166040516000604051808303816000865af1915050508173ffffffffffffffffffffffffffffffffffffffff166040516000604051808303816000865af19150509050919050565b8073ffffffffffffffffffffffffffffffffffffffff166040516000604051808303816000865af19150501515610375576040517f08c379a000000000000000000000000000000000000000000000000000000000815260040180806020018281038252601d8152602001807f63616c6c65652e63616c6c204661696c202d204e6f742052657475726e00000081525060200191505060405180910390fd5b50565b8073ffffffffffffffffffffffffffffffffffffffff166040516000604051808303816000865af191505050505600a165627a7a72305820ddfea8e43aa621ad3e16ae1c5fd903fe6a99785586f45538b51e0683d4ff4b370029",
  "source": "// SPDX-License-Identifier: MIT\r\npragma solidity >=0.4.22 <0.9.0;\r\n//pragma solidity 0.4.25;\r\n\r\ncontract swc104 {\r\n    //address x = 0x76E79EdD30799c5B56F4c90D8ce6df8599d3D0e3;\r\n    string greeting = \"TEST\";\r\n    address callee = msg.sender;\r\n    function callchecked(address callee) public{ //require로, 함수 호출에 실패할 경우 예외를 발생시켜 에러를 반환시키고 프로그램을 종료시킴\r\n        require(callee.call(), \"callee.call Fail - Not Return\");\r\n    }\r\n\r\n    function callchecked_return(address callee) public returns(bool) { //위와 동일하나, 호출한 함수의 상태를 return으로 확인\r\n        require(callee.call(), \"callee.call Fail - Use Return\");\r\n        return callee.call();\r\n    }\r\n\r\n    function callnotchecked(address callee) public { //함수 호출에 실패하여, 예외가 발생해도 반환 값이나 예외 처리가 없어 에러가 발생했는지 알 수 없음\r\n        callee.call();\r\n        \r\n    }\r\n    function callnotchecked_return(address callee) public returns(bool){\r\n        callee.call();\r\n        return callee.call();\r\n    }\r\n\r\n/*\r\n     function a() payable{\r\n         //this.balance가 정상작동 하는지 파악하기 위해서 해당 값을 추가\r\n         //컨트랙트에 이더를 전송하고 출력되는지 파악\r\n     }\r\n*/\r\n}",
  "sourcePath": "C:/Users/vlfgh/OneDrive/Desktop/STL/swc104/contracts/swc104.sol",
  "compiler": {
    "name": "solc",
    "version": "0.4.24+commit.e67f0147.Emscripten.clang"
  },
  "schemaVersion": "3.4.1",
  "updatedAt": "2021-08-05T05:39:50.145Z",
  "networkType": "ethereum",
  "devdoc": {
    "methods": {}
  },
  "userdoc": {
    "methods": {}
  }
}