{
  "contractName": "caller",
  "abi": [
    {
      "anonymous": false,
      "inputs": [
        {
          "indexed": false,
          "name": "data1",
          "type": "uint256"
        },
        {
          "indexed": false,
          "name": "data2",
          "type": "uint256"
        }
      ],
      "name": "log",
      "type": "event"
    },
    {
      "constant": false,
      "inputs": [],
      "name": "func",
      "outputs": [],
      "payable": false,
      "stateMutability": "nonpayable",
      "type": "function"
    }
  ],
  "bytecode": "0x608060405234801561001057600080fd5b506104a2806100206000396000f300608060405260043610610041576000357c0100000000000000000000000000000000000000000000000000000000900463ffffffff168063bfa814b514610046575b600080fd5b34801561005257600080fd5b5061005b61005d565b005b7ff666715aa6b8e8ce32bd39173f51eea0643fdd246a826c4756c2f168022b6eb56000809054906101000a900473ffffffffffffffffffffffffffffffffffffffff1673ffffffffffffffffffffffffffffffffffffffff1663a57207706040518163ffffffff167c0100000000000000000000000000000000000000000000000000000000028152600401602060405180830381600087803b15801561010357600080fd5b505af1158015610117573d6000803e3d6000fd5b505050506040513d602081101561012d57600080fd5b81019080805190602001909291905050506000809054906101000a900473ffffffffffffffffffffffffffffffffffffffff1673ffffffffffffffffffffffffffffffffffffffff16633f8150d76040518163ffffffff167c0100000000000000000000000000000000000000000000000000000000028152600401602060405180830381600087803b1580156101c357600080fd5b505af11580156101d7573d6000803e3d6000fd5b505050506040513d60208110156101ed57600080fd5b8101908080519060200190929190505050604051808381526020018281526020019250505060405180910390a16000809054906101000a900473ffffffffffffffffffffffffffffffffffffffff1673ffffffffffffffffffffffffffffffffffffffff16630990015b6040518163ffffffff167c0100000000000000000000000000000000000000000000000000000000028152600401600060405180830381600087803b15801561029f57600080fd5b505af11580156102b3573d6000803e3d6000fd5b505050507ff666715aa6b8e8ce32bd39173f51eea0643fdd246a826c4756c2f168022b6eb56000809054906101000a900473ffffffffffffffffffffffffffffffffffffffff1673ffffffffffffffffffffffffffffffffffffffff1663a57207706040518163ffffffff167c0100000000000000000000000000000000000000000000000000000000028152600401602060405180830381600087803b15801561035d57600080fd5b505af1158015610371573d6000803e3d6000fd5b505050506040513d602081101561038757600080fd5b81019080805190602001909291905050506000809054906101000a900473ffffffffffffffffffffffffffffffffffffffff1673ffffffffffffffffffffffffffffffffffffffff16633f8150d76040518163ffffffff167c0100000000000000000000000000000000000000000000000000000000028152600401602060405180830381600087803b15801561041d57600080fd5b505af1158015610431573d6000803e3d6000fd5b505050506040513d602081101561044757600080fd5b8101908080519060200190929190505050604051808381526020018281526020019250505060405180910390a15600a165627a7a72305820d54a2d44a76dcfad03ae07011599cb229abf4a81c389b8ce8d05b5f06d3862420029",
  "source": "// SPDX-License-Identifier: MIT\r\npragma solidity >=0.4.22 <0.9.0;\r\n\r\ncontract modtest{\r\n    uint public mutex=0;\r\n    uint public exeCnt=0;\r\n\r\n    modifier check{\r\n        mutex++;\r\n        _;\r\n        mutex--;\r\n    }\r\n\r\n    function getWithCheck() check public{\r\n        if(mutex==1)\r\n            exeCnt=exeCnt+1;\r\n    }\r\n}\r\n\r\ncontract caller{\r\n    event log(uint data1, uint data2);\r\n    modtest modcontract;\r\n    function func() public {\r\n        //modtest t = new modtest();\r\n\r\n        //1번째 함수 호출\r\n        emit log(modcontract.mutex(), modcontract.exeCnt());\r\n        modcontract.getWithCheck();\r\n\r\n        //2번째 함수 호출\r\n        /*emit log(t.mutex(), t.exeCnt());\r\n        t.getWithCheck();\r\n        */\r\n        emit log(modcontract.mutex(), modcontract.exeCnt());\r\n        \r\n    }\r\n}",
  "sourcePath": "C:/Users/vlfgh/OneDrive/Desktop/swc-git/swc118/contracts/modifier_.sol",
  "compiler": {
    "name": "solc",
    "version": "0.4.24+commit.e67f0147.Emscripten.clang"
  },
  "schemaVersion": "3.4.1",
  "updatedAt": "2021-08-20T07:20:39.960Z",
  "networkType": "ethereum",
  "devdoc": {
    "methods": {}
  },
  "userdoc": {
    "methods": {}
  }
}