{
  "contractName": "swc118",
  "abi": [
    {
      "inputs": [],
      "payable": false,
      "stateMutability": "nonpayable",
      "type": "constructor"
    },
    {
      "anonymous": false,
      "inputs": [
        {
          "indexed": false,
          "name": "msg_sender",
          "type": "address"
        },
        {
          "indexed": false,
          "name": "_owner",
          "type": "address"
        },
        {
          "indexed": false,
          "name": "value",
          "type": "uint256"
        }
      ],
      "name": "a_payable",
      "type": "event"
    },
    {
      "anonymous": false,
      "inputs": [
        {
          "indexed": false,
          "name": "msg_sender",
          "type": "address"
        },
        {
          "indexed": false,
          "name": "_owner",
          "type": "address"
        },
        {
          "indexed": false,
          "name": "value",
          "type": "uint256"
        }
      ],
      "name": "_withdraw",
      "type": "event"
    },
    {
      "anonymous": false,
      "inputs": [
        {
          "indexed": false,
          "name": "owner",
          "type": "address"
        },
        {
          "indexed": false,
          "name": "msg_sender",
          "type": "address"
        }
      ],
      "name": "setowner_event",
      "type": "event"
    },
    {
      "constant": false,
      "inputs": [],
      "name": "a",
      "outputs": [],
      "payable": true,
      "stateMutability": "payable",
      "type": "function"
    },
    {
      "constant": false,
      "inputs": [],
      "name": "withdraw",
      "outputs": [],
      "payable": false,
      "stateMutability": "nonpayable",
      "type": "function"
    }
  ],
  "bytecode": "0x608060405234801561001057600080fd5b50336000806101000a81548173ffffffffffffffffffffffffffffffffffffffff021916908373ffffffffffffffffffffffffffffffffffffffff1602179055507f0eb48ae72acb57500987acaba648129545bb636d2ce5b937d87c8f37e286c8e76000809054906101000a900473ffffffffffffffffffffffffffffffffffffffff1633604051808373ffffffffffffffffffffffffffffffffffffffff1673ffffffffffffffffffffffffffffffffffffffff1681526020018273ffffffffffffffffffffffffffffffffffffffff1673ffffffffffffffffffffffffffffffffffffffff1681526020019250505060405180910390a1610440806101186000396000f30060806040526004361061004c576000357c0100000000000000000000000000000000000000000000000000000000900463ffffffff1680630dbe671f146100515780633ccfd60b1461005b575b600080fd5b610059610072565b005b34801561006757600080fd5b50610070610134565b005b7f4b91fcd0aba2f2534ad728ffdc4c819227a7aa7ce0f4d405d7e774c447551f98336000809054906101000a900473ffffffffffffffffffffffffffffffffffffffff1634604051808473ffffffffffffffffffffffffffffffffffffffff1673ffffffffffffffffffffffffffffffffffffffff1681526020018373ffffffffffffffffffffffffffffffffffffffff1673ffffffffffffffffffffffffffffffffffffffff168152602001828152602001935050505060405180910390a1565b6000809054906101000a900473ffffffffffffffffffffffffffffffffffffffff1673ffffffffffffffffffffffffffffffffffffffff163373ffffffffffffffffffffffffffffffffffffffff161415156101f8576040517f08c379a00000000000000000000000000000000000000000000000000000000081526004018080602001828103825260148152602001807f6f6e6c79206f776e65722063616c6c207468697300000000000000000000000081525060200191505060405180910390fd5b6000809054906101000a900473ffffffffffffffffffffffffffffffffffffffff1673ffffffffffffffffffffffffffffffffffffffff163373ffffffffffffffffffffffffffffffffffffffff161415156102bc576040517f08c379a00000000000000000000000000000000000000000000000000000000081526004018080602001828103825260178152602001807f6d73672e73656e646572206973206e6f74206f776e657200000000000000000081525060200191505060405180910390fd5b7f1208333a79ec33adc7fe7598be0b141171982905ef5e85effdb6f9d9c7b8a4f8336000809054906101000a900473ffffffffffffffffffffffffffffffffffffffff163073ffffffffffffffffffffffffffffffffffffffff1631604051808473ffffffffffffffffffffffffffffffffffffffff1673ffffffffffffffffffffffffffffffffffffffff1681526020018373ffffffffffffffffffffffffffffffffffffffff1673ffffffffffffffffffffffffffffffffffffffff168152602001828152602001935050505060405180910390a16000809054906101000a900473ffffffffffffffffffffffffffffffffffffffff1673ffffffffffffffffffffffffffffffffffffffff166108fc3073ffffffffffffffffffffffffffffffffffffffff16319081150290604051600060405180830381858888f19350505050158015610411573d6000803e3d6000fd5b505600a165627a7a723058207ef9a668fe87865b50fc15e2548edda3e8106020ffc76047fe8ffd411278e5470029",
  "source": "// SPDX-License-Identifier: MIT\npragma solidity >=0.4.22 <0.9.0;\n\ncontract swc118{\n  address private owner;\n  event a_payable(address msg_sender, address _owner, uint256 value);\n  event _withdraw(address msg_sender, address _owner, uint256 value);\n  event setowner_event(address owner, address msg_sender);\n\n  //함수지정자\n  // _;는 함수를 실행하기 전에 행동을 제한하는 것에 사용\n  modifier onlyowner{\n    require(msg.sender==owner,\n    \"only owner call this\");\n    //require 행동을 완료하고, _; 함수를 실행시킨다는 의미\n    _;\n  }\n\n  //생성자, 일반 함수로 호출, 생성자 및 owner는 계속 변경됨\n  //호출당하면 owner의 값이 변경됨 msg.sender == owner\n  function swc118() public{\n    owner = msg.sender;\n    emit setowner_event(owner, msg.sender);\n  } \n\n  /*function Swc118() public{\n    owner = msg.sender;\n    emit setowner_event(owner, msg.sender);\n  } */\n  //생성자 fixed\n  /*constructor()\n        public\n    {\n        owner = msg.sender;\n    }*/\n\n  function a() payable{\n    emit a_payable(msg.sender, owner, msg.value);\n  }\n\n  //onlyowner만 호출할 수 있음\n  function withdraw() public onlyowner{\n    require(msg.sender==owner,\n    \"msg.sender is not owner\");\n    emit _withdraw(msg.sender, owner, this.balance);\n    owner.transfer(this.balance);\n  }\n}\n\n/*contract attack{\n  address attacker;\n  swc118 swc118_contract;\n\n  //컨트랙트 및 공격자의 주소를 설정 \n  function setaddr(swc118 _swc118_contract, address attack_address) {\n    swc118_contract = _swc118_contract;\n    attacker = attack_address;\n  }\n\n  //Swc118 함수를 호출해서 owner를 재설정\n  function attack_swc118() {\n    swc118_contract.Swc118();\n  }\n\n  function attack_withdraw(){\n    swc118_contract.withdraw();\n  }\n\n}*/",
  "sourcePath": "C:/Users/vlfgh/OneDrive/Desktop/swc-git/swc118/contracts/swc118.sol",
  "compiler": {
    "name": "solc",
    "version": "0.4.24+commit.e67f0147.Emscripten.clang"
  },
  "schemaVersion": "3.4.1",
  "updatedAt": "2021-08-20T07:20:38.405Z",
  "networkType": "ethereum",
  "devdoc": {
    "methods": {}
  },
  "userdoc": {
    "methods": {}
  }
}